:020000041000EA
:1000000000B5324B212058609868022188439860DF
:10001000D860186158612E4B002199600621596102
:100020000121F02299502B49196001219960352056
:1000300000F044F80222904214D00621196600F024
:1000400034F8196E01211966002018661A6600F04E
:100050002CF8196E196E196E052000F02FF8012189
:100060000842F9D1002199601B49196000215960AB
:100070001A491B48016001219960EB211966A021F2
:10008000196600F012F800219960164914480160C1
:100090000121996001BC002800D000471248134993
:1000A000086003C880F30888084703B5996A0420EC
:1000B0000142FBD001200142F8D103BD02B5186610
:1000C0001866FFF7F2FF186E186E02BD00000240BE
:1000D000000000180000070000035F00212200005C
:1000E000F4000018222000A00001001008ED00E03C
:1000F000000000000000000000000000BB688F4C02
:1001000000200420F7010010C3010010C5010010F9
:10011000C1010010C1010010C1010010C101001097
:10012000C1010010C1010010C1010010C701001081
:10013000C1010010C1010010C9010010CB01001065
:10014000CD010010CD010010CD010010CD01001037
:10015000CD010010C9150120CD010010CD01001006
:10016000CD010010CD010010CD010010CD01001017
:10017000CD010010CD010010CD010010CD01001007
:10018000CD010010CD010010CD010010CD010010F7
:10019000CD010010CD010010CD010010CD010010E7
:1001A000CD010010CD010010CD010010CD010010D7
:1001B000CD010010CD010010CD010010CD010010C7
:1001C00000BE00BE00BE00BE00BE00BEEFF3058054
:1001D000103800BEF2EB8871D8020010F402001053
:1001E0003402001090A31AE700202249086006C8D4
:1001F00081F30888104720480068002835D10DA4F5
:100200000ECC002902D000F012F8F9E71B491C4A75
:10021000002000E001C19142FCD11A4988471A49E7
:1002200088471A49884700BEFDE701C901C29A42C2
:10023000FBD37047F4020010C0000020702B012097
:10024000A42D0110702B0120486101207C63011056
:1002500000000420000004207C6301100010042032
:1002600000100420000000007047094800F014F856
:100270000047000008ED00E0000000D000800120F1
:100280009CE4022075B00020E54C002099B10020CC
:10029000575600000000000001B40248844601BC2B
:1002A000604700BF0DC5002006005250ABB360533D
:1002B000F04E012006005250861C0302004F012020
:1002C000060052505422A29D084F012005005250B2
:0802D000DE65F4687C63011097
:1002D800CC020010C0020010B4020010144F01201C
:0C02E800A8020010204F01202C4F012024
:1002F400F8B5C04610B5064C2378002B07D1054B42
:10030400002B02D0044800E000BF0123237010BD7D
:1003140018B1012000000000702B0120044B10B51F
:10032400002B03D00349044800E000BF10BDC046C1
:10033400000000001CB10120702B0120F0B5DE4646
:100344004E4657464546B522E0B50021120183B01A
:1003540006000DF0E7FE062333700133B370023B51
:10036400F370033B33710A3373714433B371453B08
:10037400F371002301227372F372F74B32721B681C
:10038400B2721A0A337472741A0C1B0EF374F34BA0
:10039400B2741B783375F24B1B787375F14B1B6881
:1003A4001A0A337672761A0C1B0EF376EE4BB2767B
:1003B4001B681A0A337772771A0C1B0EF377202303
:1003C400B277EA4A1178F15491780133F1545178B3
:1003D4000133F154242153687354180A01317054C1
:1003E400180C013170541B0E013173549368282288
:1003F400190AB3540132B154190C0132B154DC4915
:100404001B0E0132B3540B680532B354180A01327F
:10041400B054180C0132B0541B0E0132B3543C23B7
:10042400D44A1078F05434204B6833541C0A0130F9
:1004340034541C0C013034541B0E013033543D230E
:100444005078F0548B683821180A73540131705471
:100454003A201902090E31543B211B0E73543E23DA
:1004640000219278C448F2540B0004C810339B0056
:10047400F254140AF3185C700131140C120E9C70BF
:10048400DA700729F0D13400BC4B6C34B4469A4678
:100494001F00002026003B78420033707B7812183E
:1004A400920073705244137901009846444653797C
:1004B4000D311B021C43A04643469479C900240411
:1004C4001C43D3790A001B0623436244190A13729E
:1004D40051720130190C1B0E9172D3720C3708360D
:1004E4000528D8D154466046664600213C34B430D1
:1004F40023780F0003706378163743704B005B1842
:100504009B0053443C331A79FF00944665465A795C
:10051400F719120215439A79DB79120415431B0665
:100524002B431A0A3B727A7201311A0C1B0EBA72EF
:10053400FB720C3408300529DAD15546340078357D
:100544002F000020B046FC3478218946820012181E
:1005540092005244914449463B78803223707B7820
:1005640014376370097943008C46494665464979D6
:100574001B1809020D43494689799B0009040D4360
:10058400494643441E00C979F836090629430D0A31
:10059400317275720D0C090EF172B5721600717913
:1005A400127909020A43B179013309040A439446D2
:1005B4006146F279FF3312060A43110A1A7159711E
:1005C4000130110C120E9971DA710C340528BBD16B
:1005D400B423464603225B00F2546A22684BFF327E
:1005E4001978B15459780132B1549A786C23FF3395
:1005F400F25400239A46634B9C46B8235B00994609
:10060400733BFF3BC144634498464B46D146019338
:100614004B4600215C004C44A001A40000946346B6
:10062400019A1B5C13544246009B10305D182B004A
:100634002D015219577914793F02274394791733BE
:1006440024043C43D7791B013F062743F3183C0A93
:100654001F715C713C0C3F0E9C71DF71577A7319EA
:10066400157A3F023D43977A79333F043D43D77A65
:10067400FF333F062F433D0A1F705D703D0C3F0E54
:100684009D70DF70577B147B3F023C43977BD27B8A
:100694003F043C4312062243170A1A715F71013169
:1006A400170C120E9F71DA710C29B8D101239A46E6
:1006B400D1444B46072BABD19B231B01F418324D7D
:1006C400E033F71829002000202220340DF030FDFB
:1006D4002035BC42F6D1B1231B01F41810220021AD
:1006E40020000DF01FFD0222200028490DF020FDFE
:1006F400274B1A78274BF254274B1A78274BF2547E
:10070400274B1A78274BF254274B1B88013BFF3B9E
:100714005A425341254AB354B223254A1B01117846
:10072400F154117A234BF154117C234BF154536847
:100734002249180A735471184870180C1B0E8870DB
:10074400CB70D3681E49180A735471184870180C7A
:100754001B0ECB7036E0C04674CC0120B8E70120F4
:10076400D1E701209C570120985701205C570120B4
:1007740004C9012010C90120E8C8012030CE01209D
:10078400AC57012076F20120DCBE022018CF0120F4
:1007940078570120140B00007C570120150B000032
:1007A400CCE70120160B00007A570120170B00003C
:1007B40080570120210B0000220B0000240B0000B5
:1007C400280B000053691C4A8870B354190AB218E4
:1007D4005170190C1B0E9170D370B322174B120178
:1007E4001B68B354190AB2185170190C1B0ED3703C
:1007F400124B91705B68124A190AB354B2185170C3
:10080400190C9170B4211B0ED3700901B4228C46CB
:100814000C4B12011B68B35466441A0A72701A0214
:10082400120E1B0EB270F37003B0F0BCBB46B2469E
:10083400A946A046F0BDC0462C0B000074CC012094
:10084400340B0000A0570120F0B55746DE464E4653
:100854004546E0B5037889B0023B82460791042BF4
:1008640001D900F098FD4378002B01D000F090FDF1
:100874008378072B01D000F085FDC378052B01D0C8
:1008840000F080FDD94AC379944681791B020B4359
:100894006344402B01D900F078FD437C047C827CC6
:1008A4001B022343C47C1204134324061C4300216B
:1008B400201C0DF017F8002801D000F08EFCCC4964
:1008C400201C0DF017F8002800D044E1C949201C71
:1008D4000DF026F8002801D100F0C4FCC648C74D2D
:1008E400C74B1C60C74B1860C74B1D60C44B5C6092
:1008F400C44B01245860C44B50465D6053461B7D75
:1009040055465A1E9341C14ADBB2137053465B7D70
:100914005A1E9341BE4ADBB2137052465346517E6F
:100924001B7E090219435346927EDB7E1204114357
:100934001B06B84A0B43136052465346517F1B7F34
:10094400090219435346927FDB7F120411431B06AD
:10095400B14A0B431360B14B52461C702023D25C46
:100964005146531E9A41AE4BD2B21A7021228A5C70
:10097400AC4F9A7022228A5C511E8A41D2B25A70BC
:10098400514624228A5C2521405C514600021043D2
:100994002622895C01320904084351468A5C120606
:1009A40002435A60282250468A5C2921405C514601
:1009B400000210432A22895C01320904084351468B
:1009C4008A5C120602439A60974B1C70974B002472
:1009D4009B463C2353440093954B984623000C3389
:1009E4009B00585DEB1859789A78DE780902084321
:1009F4001204024336061643A3000021FE50301CA5
:100A04009A460CF06FFF002800D0E9E07849301CCA
:100A14000CF070FF002800D04DE37649301C0CF038
:100A24007FFF002800D149E38248744E52465B465A
:100A34009850814B9E50009B1B5D5A1E9341424629
:100A4400DBB213550134032CC8D17C4B00201C00AD
:100A54002E000693030010339B009D5DF3185A7813
:100A640099781202DB781543090429431B060B43CA
:100A7400013008C40728EDD1B2466C2353440493D3
:100A84006F4BB146039300230093009BCB46DA00DF
:100A940001921A001B019B1A9B0000259946039F93
:100AA400049E009A337894463B7073786C007B7094
:100AB400019B63445B190D33DB005B44597A187A5C
:100AC4009A7A0902DB7A08435D49120402438C4690
:100AD4001B0613439846621992004A446244190A59
:100AE40013715171190C1B0E917140460021D37181
:100AF4000CF0F8FE002831D140463D490CF0FAFED6
:100B040000282FD140463B490CF00AFF00282CD086
:100B14003A4B98464A4B40469C466419A4004C44C0
:100B24006444020A207262720135020C000EA27241
:100B3400E07208360C37052DB3D1049BD9464833EF
:100B44000493039B3C330393009B012B00D181E06E
:100B54000123009399E728483A4DC1E6FE239B05FB
:100B64009846D7E7374B9846D4E7404636490CF0C9
:100B74008AFE011C80460CF086FE8246011C40461B
:100B84000CF081FEFE210290890540460CF064FEC3
:100B9400FC210590890550460CF075FE011C059852
:100BA4000CF05AFE2949824602980CF06CFE011C96
:100BB40050460CF051FE0299824640460CF063FE0A
:100BC40023490CF060FE011C50460CF045FE002148
:100BD40080460CF08FFE00289CD00023984699E7AD
:100BE4008020FE260002B60520E7C046F0F4FFFF91
:100BF400000070C20000A041FFFFFF7F308D124152
:100C040074CC01207057012068570120B8E70120F7
:100C1400D1E701209C57012098570120D2E70120F9
:100C24005C57012004C90120BEE701204C57012074
:100C340010C901206994040040570120E8C801202C
:100C440030CE0120788B6742E3C8EB3DADAA2A3E43
:100C5400B4AA2A3D7822FC2394465B44DA469B4698
:100C6400D74B5C4663441D00069B00269B462378B5
:100C74002B7063786B7073009A1992005244F832A7
:100C8400517A107A09020843CD4998468C46937AE2
:100C9400D27A1B04034312061343B20091469219FD
:100CA400920062447832190A1F1C13715171190C95
:100CB4001B0E9171D3710021381C0CF013FE002817
:100CC40000D078E1BF49381C0CF014FE002800D095
:100CD40074E1BD49381C0CF023FE002800D1ADE1BD
:100CE400BA4FB74A4B4694469B199B0063448033E2
:100CF4003A0A5A703A0C9A70424692199200524437
:100D04001F7001323F0EDF70FF32517917799079ED
:100D14000902D2790F430004384312060243100A31
:100D2400111C1A715871100C120E9871DA715B460D
:100D3400996004239C4601360C341435E344052E93
:100D440095D1079B002B16D05046A14A0023944608
:100D54006A30A049A04CFF30043EC25C1D2A00D971
:100D6400A7E165463700D540AF4300D1A1E1CA549D
:100D74000133032BF1D1994B99460493B8235B00BB
:100D840053440393D623DB005344059300239B462B
:100D94005B46DBB298465B465B005B449B009C462B
:100DA40043460193634600255146039F049E0097E2
:100DB4000293019B75703370009B1B78B370029B88
:100DC40010365A191301173212018A1854791079FE
:100DD400240220439479D279240420431206024346
:100DE4004846C418100A22716071100C120EE27188
:100DF4002200CB187933A071FF335F7818783F0253
:100E040038439F7801353F043843DF783F06384341
:100E14002072040A5472040C000E9472D072187971
:100E24008246587900028046504644462043824612
:100E34009879DB7900048446504664461B062043B7
:100E44000343180A13735073180C1B0ED373009BBF
:100E54009073103300930C2DABD101239C46049B5B
:100E6400059AC0330493039B8A46C033E344039337
:100E740093428DD19B24A927002624013F01584D7C
:100E84005444574421002800202220340DF050F906
:100E9400EE772035A742F5D153461A78022A00D8B6
:100EA40048E1B3219879DB7909011B0203438B42A2
:100EB40000D330E2032A00D83CE1B22351461B019F
:100EC400C95C50464B1E9941464BC9B219704649FC
:100ED4005446415C0025197244495646415C481EFB
:100EE40081415046C9B219744149415C4148205C72
:100EF400000208434049615C090408433F49615CBE
:100F0400090601433E4859603E49205C615C000289
:100F140008433D49615C090408433C49615C090696
:100F240001433B48D9603B49205C615C00020843B3
:100F34003949615C090408433849615C0906014385
:100F44005961012336490B7036490B70052A00D8C4
:100F540000E1B3239B00EB189B009C5DF3185A78C7
:100F6400997812022243DC7809040A4324061443C4
:100F74000021201C0CF0B6FC002800D028E1114907
:100F8400201C0CF0B7FC002800D02CE10E49201CDA
:100F94000CF0C6FC002800D128E123480B4F234A5B
:100FA400AB00D450224AD050224AD750012D00D150
:100FB400D8E00125CDE7FE27BF0592E61E4F90E657
:100FC40030CE0120000070C20000A041308D1241DB
:100FD40000108023AC570120DC41012074F2012071
:100FE400DCBE022080570120210B0000220B0000F0
:100FF400240B0000250B0000260B0000270B00002B
:10100400290B0000280B00002A0B00002B0B00000A
:101014002D0B00002C0B00002E0B00002F0B0000EA
:10102400CFE70120CEE70120FFFFFF7F74CC012032
:101034007057012068570120788B6742E049381CBB
:101044000CF021FC011C071C0CF01DFC011C019080
:10105400381C0CF018FCFE2100908905381C0CF09B
:10106400FBFBFC210290890501980CF00CFC011C8F
:1010740002980CF0F1FBD349019000980CF003FCAA
:10108400011C01980CF0E8FB00990190381C0CF04D
:10109400FAFBCD490CF0F7FB011C01980CF0DCFBCA
:1010A4000021071C0CF026FC002800D119E60027BB
:1010B40017E6E25C5BE6C548C54EB7E4C049301CA0
:1010C4000CF0E1FB011C061C0CF0DDFB8146011C4D
:1010D400301C0CF0D8FBFE2101908905301C0CF06B
:1010E400BBFBFC210290890548460CF0CCFB011C9B
:1010F40002980CF0B1FBB349814601980CF0C3FB94
:10110400011C48460CF0A8FB01998146301C0CF0E8
:10111400BAFBAD490CF0B7FB011C48460CF09CFB34
:101124000021061C0CF0E6FB002800D184E100201D
:1011340000267BE40022A74BA7491A7059601A7253
:10114400A64AA749DA6001221A745961A54B1A709C
:10115400A54B1A70002009B0F0BCBB46B246A946A4
:10116400A046F0BDB4231B01F25CA04BA049F35C84
:101174001B021A439F4BF35C1B0413439E4AB45C4B
:1011840024061C43251C64006408201C0CF0CDFBC1
:10119400002806D19649201C0CF0C2FB002800D17F
:1011A4009CE00025954B1D609549281C0CF057FBCD
:1011B400011C94480CF0DCFD8E21934BC90518608A
:1011C4000CF061FB0CF0E4FB904B18600020C2E7CC
:1011D4008020FE274005BF05E1E68020FE2540056E
:1011E400AD05FFF77DFB8A48794FD8E67449201C8A
:1011F4000CF049FB011C071C0CF045FB011C82464A
:10120400381C0CF040FBFE2180468905381C0CF08C
:1012140023FBFC218146890550460CF034FB011C5C
:1012240048460CF019FB6749814640460CF02BFBFD
:10123400011C48460CF010FB41468146381C0CF05A
:1012440022FB61490CF01FFB011C48460CF004FB17
:101254000021071C0CF04EFB002800D19EE000206A
:1012640000279CE65649201C0CF00DFB011C051CB4
:101274000CF009FB071C011C281C0CF004FBFE21CC
:10128400061C8905281C0CF0E7FAFC218046890518
:10129400381C0CF0F8FA011C40460CF0DDFA494900
:1012A400071C301C0CF0EFFA011C381C0CF0D4FAAB
:1012B400311C071C281C0CF0E6FA43490CF0E3FA35
:1012C400011C381C0CF0C8FA0021051C0CF012FBA0
:1012D40000286BD000200025FFF702FBC32636064A
:1012E400311C281C0CF006FB002809D0434B1E605F
:1012F4000022454B00201A600022444B1A602AE762
:101304000024281C211C0CF00BFB3C4B002828D08B
:101314001C60211C4DE72039022251443D480CF049
:1013240007FF52463C4B5146D25C3C4B1A70524626
:101334003B4BD25C3B4B1A7052463B4BD35C5A1E20
:1013440093413A4A137053461A78394BCB5C042ABA
:101354000FD9013B59424B413649DB0180330B80A5
:10136400ABE51D60311C281C0CF0CAFA0028BFD163
:101374001AE7002B04D180235B002E490B8099E5EA
:101384009BB2FAE703204042E5E604204042E2E64D
:1013940002204042DFE601204042DCE69B21381C6B
:1013A400C9050CF070FA0CF0F3FAF8E59B21281C3F
:1013B400C9050CF068FA0CF0EBFAFFF791FAC04695
:1013C400E3C8EB3DADAA2A3EB4AA2A3D6FF11C0046
:1013D400788B67428057012000004842000070412A
:1013E4000000C0C2CFE70120CEE70120410B00007E
:1013F400FFFF7F7F420B0000430B0000A05701203A
:101404000000A04100002041A4570120A85701205A
:10141400FFFFFF7F18CF0120140B00007857012035
:10142400150B00007C570120160B0000CCE70120AF
:10143400170B00007A5701208E21301CC9050CF0CF
:1014440022FA0CF0A5FAFFF7F1FAC046F8B5CE4639
:1014540047460B7804000D0080B5161C002B00D104
:10146400A2E0FE21101C89050CF044FA002800D0EB
:101474009AE0AB78022B5BD8524ADB009F58D31812
:10148400514958680CF0EBF9011C50480CF070FC01
:101494004F498146381C0CF0F6F9311C0CF0DFF989
:1014A4000CF0F2FA011C071CFE2080050CF0D1F9A7
:1014B400FE218046890548460CF0CEF9011CFE2029
:1014C40080050CF0CCF941460CF0DDF96B788146CF
:1014D400002B4DD0311C40460CF0D5F9011C381CB2
:1014E4000CF0BDF9011C3B480CF0B3F90021051CBC
:1014F4000CF016FA00283BD0291C301C0CF0C3F960
:10150400051C011CFE2080050CF0A3F9FE21061C1D
:101514008905281C0CF0A0F9011C301C0CF09FF963
:101524009B21C9050CF0AFF90CF032FA050021E05B
:101534006F68AB682849381C98460CF0DBF9002822
:1015440038D12649381C0CF0EBF9002800D0234F81
:10155400002140460CF0CEF90021002895D14046E8
:101564001F490CF0DDF9002826D0FD2189058CE700
:1015740080256D059B214846C9050CF084F90CF0C3
:1015840007FA9B212060C905381C0CF07CF90CF08B
:10159400FFF9002360602561A360E3606361A361D8
:1015A400C0BCB946B046F8BD1C22002120000CF096
:1015B400B9FDF5E7084FCBE7034940460CF04FF976
:1015C400011C62E7E04101200000A041000020412D
:1015D400DB0FC9C0CDAF66390000FA430000FA44FE
:1015E40000007041F0B5DE4657464E464546E0B52C
:1015F400070085B0101C0C00D549161C0CF043F9EB
:101604007B793979BA791B020B43F97912041343B4
:1016140009061943051C0CF06DF9002807D02B0AA4
:101624007B712B023D711B0E2D0EBB71FD717B7BFB
:10163400387BBA7B1B020343F87B12041343000676
:101644001843C4490CF00BF9011CC3480CF090FB7F
:101654007A79051C3879BB7912020243F8791B04A4
:101664001A4300061043BD490CF00DF9311C0CF06F
:10167400F6F880460CF0F6F9061C40460CF0E0F94A
:1016840000907B7A387ABA7A1B020343F87A120400
:10169400134300061843011C0CF0DEF8011C301C37
:1016A4000CF0DDF8BB78061C052B00D904E2AC4A2B
:1016B4009B00D3589F46FE21009F8905381C0CF0DF
:1016C400CBF8FE2180468905301C0CF0C5F8FC21BE
:1016D400051C890540460CF0D6F8291C0CF0BFF80F
:1016E4009B21C9050CF0CFF80CF052F980231B069E
:1016F400434482461800291C0CF0B1F89B21C9050B
:101704000CF0C1F80CF044F9C02181460906381CDC
:101714000CF0B9F8291C0CF0A2F89B21C9050CF0B7
:10172400B2F80CF035F90700FE20311C80050CF0EE
:1017340090F8291C0CF093F89B21C9050CF0A3F830
:101744000CF026F95546534623604B46A56063606A
:10175400E760206105B0F0BCBB46B246A946A0468E
:10176400F0BD011C281C0CF08EF8291C8046301C8E
:101774000CF075F8FE21890583460CF06DF8FE2106
:10178400061C890540460CF067F8311C0CF067F81C
:101794009B21C9050CF077F80CF0FAF8C0218246B9
:1017A400090600980CF06FF8311C0CF058F89B21D6
:1017B400C9050CF068F80CF0EBF88146FE204146B0
:1017C40080050CF046F8311C0CF049F89B21C90542
:1017D4000CF059F80CF0DCF80500FE2059468005A1
:1017E4000CF037F8311C0CF03AF89B21C9050CF0C9
:1017F4004AF80CF0CDF84F46A5E7FE21281C8905D0
:101804000CF02AF8FE2181468905281C0CF021F8E9
:10181400009F8046011C381C0CF035F8011C8346DF
:1018240048460CF016F80090281C0CF0F9F84946CC
:101834008246381C0CF027F80190281C0CF0F0F8B4
:101844005946071C48460CF007F88146281C0CF042
:10185400E7F8011C0CF000F8311C0CF014F84B46AE
:10186400494603930BF0F8FF8346281C0CF0D8F884
:101874005146029050460BF0EFFF311C0CF003F878
:1018840000990BF0E9FF291C0BF0FDFF59460BF002
:10189400E6FF9B21C9050BF0F6FF0CF079F8291C33
:1018A4008246281C0BF0D8FF0199814640460BF074
:1018B400D0FF011C48460BF0E6FF59460BF0CFFF62
:1018C4009B21C9050BF0DFFF0CF062F8391C81463F
:1018D400381C0BF0C1FF311C0BF0D5FF011C009824
:1018E4000BF0B7FF291C0BF0CEFF59460BF0B7FFE6
:1018F4009B21C9050BF0C7FF0CF04AF801990500BC
:1019040040460BF0A9FFC02109060BF0BCFF594665
:101914000BF0A5FF9B21C9050BF0B5FF0CF038F8BF
:10192400029B0700191C181C0BF096FF311C0BF0CE
:10193400AAFF011C03980BF08CFF59460BF08FFF94
:101944009B21C9050BF09FFF0CF022F8FBE6C04673
:101954006666E63E0000204200002041DB0FC940DD
:10196400F8410120FE21281C89050BF075FFFE219A
:1019740081468905281C0BF06CFF009F8046011CE2
:10198400381C0BF080FF011C834648460BF064FFB3
:101994000090281C0CF044F849468246381C0BF091
:1019A40072FF0190281C0CF03BF85946071C48466E
:1019B4000BF04FFF8146281C0CF032F8011C0BF091
:1019C4004BFF311C0BF05FFF4B46494603930BF072
:1019D40043FF8346281C0CF023F8514602905046DE
:1019E4000BF03AFF311C0BF04EFF00990BF034FF63
:1019F400291C0BF048FF59460BF031FF9B21C90508
:101A04000BF041FF0BF0C4FFC02182460906281CDD
:101A14000BF039FF0199814640460BF01DFF011C74
:101A240048460BF030FF59460BF019FF9B21C905BE
:101A34000BF029FF0BF0ACFF391C8146381C0BF06E
:101A44000BFF311C0BF01FFF011C00980BF001FF72
:101A5400291C0BF018FF59460BF001FF9B21C90507
:101A64000BF011FF0BF094FF0199050040460BF0B9
:101A7400F0FE011C0BF0F0FE49E7FE20009F8005FC
:101A8400391C0BF0E6FEFE2180468905301C0BF064
:101A9400E3FEFC21051C890540460BF0F4FE291CDD
:101AA4000BF0DDFE9B21C9050BF0EDFE0BF070FF82
:101AB400291C824640461FE6802300205B05070060
:101AC400050081469A463EE6F8B54746CE4680B5BF
:101AD400837804000D009846171C002B5DD04379D1
:101AE400027986791B021A43C379360416431B060E
:101AF4001E430021301C0BF003FF00284DD1434648
:101B0400013B022B10D8627B207BA37B1202024391
:101B1400E07B1B041A430006104340002A49400896
:101B24000BF0E8FE002838D10021381C0BF0DAFE57
:101B3400002832D12877637A217A1B02A27A1943CA
:101B4400E37A12040A431B0613432049181C9846DF
:101B54000BF0D0FE814600282DD140461C490BF0E5
:101B6400DFFE002806D04B4623726372A023A372C3
:101B74005F3BE3721749301C0BF0BCFE002806D013
:101B84000023237163712033A3712133E37129008E
:101B940020003A1CFFF726FD09E001232B77802360
:101BA4005B052B6000236B60AB60EB602B61C0BCFA
:101BB400B946B046F8BDCD232372013B6372A372CC
:101BC4008F3BE372D6E7C0460AD7233CCDCCCC3D4D
:101BD4000000A04100002041F0B5DE4657464E46C5
:101BE4004546A822E0B5FE4E8FB000211201300018
:101BF4000CF098FA1C220021FA480CF093FAFA4BE4
:101C0400771C9A4680239C465E3B534403934223AD
:101C1400534404936223B44453446246FF37059308
:101C240000230121D046BC46029301960092029AF9
:101C3400EE4B91469954802301985B050360002480
:101C4400017740461E0053004B449B01534484706B
:101C54001C715C710824A146442099447A22EC3416
:101C6400FD251C72D8714C4648469A713B3A657002
:101C74003424C27000223C27027142718271C27105
:101C840084700198BA46C1554746BA741027B946BC
:101C940099444F463A717A717A22BA714A46442776
:101CA400D7712C3FB946F42299444F461A76B53A77
:101CB400FA70002206623A717D70BC707A71BA7152
:101CC400FA715C27C155B9462027BB469B445F4641
:101CD4000664039E32703A717A717A22BA715A4656
:101CE4004427D7711C3FBB469B445F46F4223A709D
:101CF400B53AFA7000227D703A717A71BA71FA714C
:101D0400BC707C27C15580277F0507663027BB46FA
:101D14009B445F4632743A717A717A22BA71363AC8
:101D2400FA710C3A93469B445F46BC323A703F20AA
:101D34000022F8703A717A71BA717D70BC70FA71D0
:101D44008027009E7F0537604027BB469B445F4643
:101D54000498317702705E463A717A717A27B771C6
:101D6400363FF7714826B3469B445E46B03737701A
:101D7400B53F32717271B271F271F7707570B470EF
:101D84005646009F0274B9558027009E7F0537622E
:101D94005026B3469B445E46327172717A22B27108
:101DA400363AF2711A00F427583217703F20002790
:101DB400D070BB4617715771557094709771D77175
:101DC40080274E46009A7F05915517641A005E4697
:101DD400059860320670167156713F267A27D672BE
:101DE4005E469771363FD771B037177216735673C4
:101DF400557294729673D67380277C22009E7F0559
:101E0400B1541A0037665E46703206741671567104
:101E14003F267A27D6725E469771363FD771B03720
:101E2400380017728027167356735572947296731E
:101E3400D67366467F05376031775F464646822211
:101E4400B7541A0088268032177157717A27B3461F
:101E54009771363FD7719B4402005E46B53AF270E3
:101E64000022307032717271B271F2717570B47097
:101E740057466646F15580277F0537629226B2465B
:101E840046465746F2559026B2469A445646183F5F
:101E9400B771363F32717271F7719826B2460700F6
:101EA4009A445646B53F3070F77032714F4672719E
:101EB400B271F2717570B4706646F15580277F0572
:101EC4003764A226B14646464F46F255464E263F53
:101ED400B246A026B14699444E46327172717A22B6
:101EE400B271363AF271A826B146414E99440200C5
:101EF400B3464E46B53AF2700022307032717271B8
:101F0400B271F2717570B4706646F15580277F0521
:101F14003766B226B14646464F46F255B026B1461C
:101F240099444E46B8331870B538D8700198327158
:101F340072711A715A719A71DA71029A383F81304A
:101F4400B7715D70363F9C70FF30531CF77102937C
:101F54000190C0208146C030C8448146039F009E42
:101F6400C037059A0397049F8136FF36C037C032C5
:101F74000096CC4404970592072B00D057E6102214
:101F8400002106A80CF0CEF8052306AA93705B4640
:101F94001548184D06A910224844089307950CF0DB
:101FA400C7F890239B009C460F4806A91022604462
:101FB4000CF0BEF8C0239B009C460B4806A91022D7
:101FC40060440CF0B5F8F0239B009C4606480AAC2C
:101FD400604406A910220CF0ABF810220CE0C046B5
:101FE400F4E70120E8C8012074F20120ECE70120A5
:101FF400F4FD343F0000A042002120000CF092F8D0
:102004000423A3705B460C939023DB009C46074893
:102014001022210060440B950CF08AF80FB0F0BC3C
:10202400BB46B246A946A046F0BDC04674F20120A4
:10203400F0B5C6460027464B464E00B5B1681F7042
:102044009846041C0BF01FFC43490BF008FC0BF0F2
:102054009FFC80231B01984250DD404D2B600127DB
:10206400F168201C0BF00FFC3B490BF0F8FB0BF064
:102074008FFC80231B01984259DD6B600127316975
:10208400201C0BF000FC34490BF0E9FB0BF080FC46
:1020940080231B01984245DDAB6001277169201C38
:1020A4000BF0F1FB2C490BF0DAFB0BF071FC8023F5
:1020B4001B01984231DDEB6001278620211CB669A3
:1020C400C0050BF0CCFB24490BF0DDFB311C0BF0FD
:1020D400C3FB211C0BF0D7FB1F490BF0C0FB0BF01B
:1020E40057FC80231B01984212DC00282ADB28615C
:1020F4000FD1002F0DD180BCB846F0BD174D00287C
:1021040003DB2860ABD10027AAE72F600027A7E7ED
:102114002B61012342461370EDE700280CDBE860D5
:10212400CBD0C9E7002810DBA860B7D0B5E70028FA
:1021340005DB6860A3D0A1E70023EB60BDE70023C3
:102144006B609CE700232B61D3E70023AB60A5E71A
:10215400B5E70120E8C8012000007A44D4C8012072
:10216400F0B5DE4657464E464546E0B50026B44F28
:10217400B44C8BB0A1683E7004900BF084FBB24960
:102184000BF06DFB0BF004FC80231B01984200DC78
:1021940000E1AE4D2B600126E16804980BF073FB5F
:1021A400A9490BF05CFB0BF0F3FB80231B01984265
:1021B40000DCE3E16B600126216904980BF063FB0A
:1021C400A1490BF04CFB0BF0E3FB80231B0198426D
:1021D40000DCCDE1AB600126616904980BF053FB90
:1021E40099490BF03CFB0BF0D3FB80231B01984275
:1021F40000DCC9E1EB6001268620049BA4699846B3
:10220400191CC0050BF02BFB8F490BF03CFB211C68
:102214000BF022FB41460BF036FB8B490BF01FFB06
:102224000BF0B6FB80231B01984200DD9CE10028E3
:1022340000DAB5E1286100D097E1002E00D094E1E6
:10224400834B0393834B9A4680235344069353460C
:102254000133FF330793022301930023D3460093F2
:102264000593039B1B789A46002B00D179E100214A
:1022740004980BF037FB002800D0F9E0764B009A65
:102284005C469F1A059A01219446530063449B00BF
:1022940000268B46029309946AE06F4A029B90469B
:1022A4009B191B01984443461A795B7900211B0250
:1022B4001A4343469D79DB792D0415431B061D43C0
:1022C400281C0BF01DFB002859D14B46013B022B67
:1022D4006BD90023604A23779046029B9B191B010C
:1022E4009844082343449A4643465A7A197A120278
:1022F400114342469B7AD27A1B040B4312061A43BB
:102304005649101C91460BF0F5FA0890002861D04C
:10231400CD23424613725246013B537093708F3B58
:10232400D3704F49281C0BF0E5FA00280CD04A4A18
:10233400029B944600229B191B0163441A715A7133
:1023440020329A712132DA7121003800049AFFF7A1
:1023540049F9039B1B789A46237F01365A1E934101
:102364005A465B421A40934620341037564541DAA8
:10237400009B019ADB199B5C9946002B8DD10123AC
:10238400237780235B05236000236360A360E360FD
:102394002361E1E72D4D002804DB286000D0FAE634
:1023A4000026F9E62E600026F6E643465A7B187BA3
:1023B4009B7B120202431B041A434346D87B2949E0
:1023C40000061043400040080BF094FA002800D1A6
:1023D4007FE7D4E7484624490BF0A2FA0028A0D0AE
:1023E4004246089B137252465370A02393705F3B7E
:1023F400D37096E7099B11009B46059B1B4AD15459
:10240400039A013301320392C02252009446009A87
:102414000593C03A0092019AE344C0320192069AAD
:1024240062440692079A62440792072B00D018E789
:102434000BB0F0BCBB46B246A946A046F0BDC046B0
:10244400B5E70120E8C8012000007A44D4C801207F
:1024540014570120F4E7012074F20120CDCCCC3DC7
:10246400000020410AD7233C0000A041ECE70120F2
:1024740080225B4601215205584619771A600023D1
:1024840043608360C36003615046012866D05C46A4
:102494003C20215422626362A362E36223635446B4
:1024A400022C5BD05D465C2429552A646B64AB64C2
:1024B400EB642B655546032D50D05E467C25715543
:1024C40032667366B366F36633675646042E45D0A8
:1024D4005746069E317732607360B360F3603361B0
:1024E400052F3BD0315432627362B362F3623363BB
:1024F400062F33D0315532647364B364F3643365A7
:10250400072F2BD0715532667366B366F366336753
:10251400082F23D00023079C217722606360A360E7
:10252400E3602361092F19D03C20215422626362A5
:10253400A362E36223630A2F10D05C202154226437
:102544006364A364E36423650B2F07D07C202154C8
:1025540022666366A366E36623674EE701231900D8
:102564004BE70133190048E72B6101233B7067E611
:10257400002818DBA86000D12EE62CE6002809DB31
:10258400686000D118E616E6002806DBE86000D192
:1025940032E630E600236B600EE60023EB602BE6A8
:1025A40000232B6149E60023AB6015E610B511F05A
:1025B400F3FC10BD10B511F02FFD10BDF8B5CE46DB
:1025C400474680B51700FF23FF379F43334B160060
:1025D400802299460D005201FF21040018000BF0DF
:1025E400A1FD3200290048460BF0A2FD01200CF0A9
:1025F400DDF80026002803D0EFF30583002B46D036
:10260400EFF3108872B6802120004901FFF7CEFF56
:102614003A0049462000FFF7CDFF88F31088002ECA
:1026240039D11F4E1F483168890007F0F5F9326827
:102634001D4B00211A601D4B1B6818009B0F820064
:1026440012184B41002192185B41194880185941D6
:10265400002916D1FA23DB02984212D2802080008E
:102664000122144B1860144B1A7080235B05E05848
:102674002B68C01A431E98414042C0BCB946B046BC
:10268400F8BDFA22002392000AF0F0F8E8E70CF013
:102694005BF80126B4E70CF061F8C2E700A0012062
:1026A40014CF012094AE02206CCC012034570120B9
:1026B400E703000054D70120DFE7012070B5324B57
:1026C4009A7C012A37D05D696C0064082F49201C6C
:1026D4000BF02BF9002852D12C49201C0BF020F9C7
:1026E40000284CD1C3263606311C281C0BF002F9F5
:1026F400002808D0264B1E600022264B1A600022B8
:10270400254B1A6070BD0024281C211C0BF008F90D
:102714001F4B002826D01C60211C20480BF028FBEE
:102724008E211C4BC90518600BF0ADF80BF030F985
:10273400194B1860E6E70028C5D0427901791202E6
:102744000A430B2ABFD9164BC25C164BC35C1B024F
:102754001A43154BC55C154B2D04C35C15431B066E
:102764001D43B1E71D60311C281C0BF0C9F800287B
:10277400C2D10F49281C0BF072F8011CCDE70025CB
:10278400034B1D60F5E7C046A4CA0120FFFF7F7F0D
:10279400A0570120A4570120A85701200000204180
:1027A4002C0700002D0700002E0700002F07000053
:1027B4000000A04170B5FFF70FFA8020FE2200242C
:1027C400504D5149514B920540052C6008601A60E8
:1027D4006C60002548605A600020FFF76FFF80217D
:1027E40001264B4B4B481D704B4A4C4B090204606D
:1027F40011601D70446051605D70846091609D70D3
:10280400474B484A1D70484B484C1A60484B494A4C
:1028140000211A60484B494A1E70494B20001D7024
:102824005E709D705A60474A9A60474BDC221E7066
:102834000BF078FC482180233F226654083165540C
:1028440001316554013163540131625425316654B8
:1028540021008031E5544D70CA708B708C21665410
:1028640008316554210094314D70CA708B70A821D1
:1028740065542100A8314D70CA708B70BC21655419
:102884002100BC314D70CA708B70D0212572655403
:102894006572E2722670A372D0346570E270A37020
:1028A40000242A4B393A1A7001325A70284D0332E7
:1028B4009A7029002000013405F0F8FD2035072C1A
:1028C400F7D10222002123480BF02CFC0E22224BCC
:1028D40080211A70214B013A1A700022204B1A7081
:1028E400204B1980204B21491A7059601A72204AD2
:1028F4002049DA6001221A7459611F4B1A701F4B68
:102904001A7070BD74CC01207057012068570120E3
:10291400B8E7012004C901204C57012010C9012047
:10292400D1E701200000A6429C57012030CE0120AF
:10293400985701200000C842D2E7012000002F442C
:102944005C57012000009040BEE70120AC570120F5
:10295400DCBE022018CF0120785701207C570120CB
:10296400CCE701207A57012080570120000048421B
:10297400000070410000C0C2CFE70120CEE7012073
:10298400F0B5DE46454657464E46E0B585B0039160
:10299400A82201000500D200DB480C310BF0C8FB73
:1029A4006B792A791B0213430B2B40D9D74B002494
:1029B4009946D74BCB469846D64F2300C933FF33AD
:1029C4009B00EB18187959799A79DE79A3009A4615
:1029D4000902084312040243360616435B46524674
:1029E400CD499E50301C0AF08BFF002800D02CE308
:1029F400CA49301C0AF08CFF00285CD1C849301C3D
:102A04000AF02DFF011CC7480BF0B2F99B21C90540
:102A140081460AF038FF0AF0BBFF434652469850FD
:102A240053464A46FA50012C48D00124C5E70023F6
:102A34009A46B64B56469946B54BB64F9846BA4B4E
:102A44009B465B46EA5CB94BB349EB5C1B021A43F9
:102A5400B74BEC5CB74B2404EB5C14431B061C43E0
:102A6400B3009A464B465246201C9C500AF048FF3D
:102A7400002800D0EDE2A949201C0AF049FF0028F3
:102A840016D1A749201C0AF0EAFE011CA5480BF048
:102A94006FF99B21C905041C0AF0F5FE0AF078FFC2
:102AA400524643469850BC50012E07D00126C8E731
:102AB4008121C905EAE78121C905A4E7AA23DB002E
:102AC400EB5C9D485A1E93419C4ADBB213709C4BAD
:102AD4001C22E9180BF02CFB9A4B00269B469A4BC0
:102AE4009A469A4B99469A4BA94498464C463300C9
:102AF4005D33FF339B00585DEB1859789A78DF7883
:102B0400B300994609020843120402433F061743DF
:102B14005B464A4680499F50381C0AF0F1FE002863
:102B240000D0EEE07D49381C0AF0F2FE002800D007
:102B340060E27B49381C0AF092FE011C79480BF0D4
:102B440017F98E21C9050AF09EFE0AF021FF4A46B4
:102B540053469850A35D5A1E93414246DBB29355A7
:102B64000136032EC3D1B023DB00EB5C01245A1ED3
:102B74009341784ADBB21370774A784BA95CEB5CDB
:102B840009021943764BAA46EA5C764B1204EB5CC5
:102B940011431B06744A0B431360B123734ADB00D1
:102BA400A95CEB5C09021943714BEA5C714B12049A
:102BB400EB5C11431B06704A0B4313606F4B1C7094
:102BC4006F4BEA5C531E9A416E4BD2B21A706E4A36
:102BD400AA5C9A706D4AAA5C511E8A41D2B25A709C
:102BE400B2226B49D200685CAA5C00021043694AB5
:102BF400A95C694A0904AA5C0843120602436749AE
:102C04005A60674A685CAA5C00021043654AA95C82
:102C1400654A0904AA5C0843120602439A60634B9E
:102C24001C70B323DB009C46AC4463460193604BA9
:102C3400029300239B465B469B0000935B465A46E7
:102C44001B019B1A9B0000269846029D019F3B781E
:102C540074002B707B786B70009B5B449B19B333BF
:102C6400DB005344597918799A790902DB790843CE
:102C74004F49120402438C461B0613439946A2197A
:102C8400920042446244190A13715171190C1B0ECB
:102C9400917148462049D3710AF032FE00282BD1A5
:102CA40048461E490AF034FE002827D11C494846EC
:102CB4000AF0D5FD011C1B480BF05AF83C4BA41933
:102CC4009C46A40044446444020A207262720136A1
:102CD400020C000EA272E07208370C35052EB6D134
:102CE400019B28330193029B3C3302935B46012BE7
:102CF40060D001239B469EE70020DFE78121C905C0
:102D0400D9E7002023E7C04674F2012074CC0120E7
:102D140070570120685701200000F0C20000A04253
:102D24000000A041000020414C0500004D050000BA
:102D34004E0500004F050000E8C80120B8E7012057
:102D44005405000004C901204C5701207C050000F3
:102D540010C90120D1E70120850500008405000089
:102D640086050000870500009C57012089050000A6
:102D74008A0500008B05000098570120D2E7012046
:102D84008C0500005C5701208D0500008E050000B5
:102D940091050000920500009305000095050000D0
:102DA400940500009605000097050000BEE7012089
:102DB40030CE01207822BD239446DB005546994647
:102DC400AB4BD14463449846AA4B00279A462B0048
:102DD4004E46454698463378BC002B7073786B702A
:102DE4007B00DA199946BD23DB009C4692004244DD
:102DF4006244517910790902937908439C49D27944
:102E04008C461B040343120613439B46E2199200AB
:102E140062447832190A13715171190C1B0E9171A5
:102E240058469549D3710AF06BFD002800D0DAE0CA
:102E3400584692490AF06CFD002800D0D5E090492C
:102E440058460AF00CFD011C8E480AF091FF884A8E
:102E5400BE219446E419A30063448033020A5A70E5
:102E6400020C9A704A46C9008C46D2199200187016
:102E74004244000ED8706244517814789078090264
:102E8400D2780C430004204312060243100A111C9A
:102E94001A715871100C120E9871DA7153469960B8
:102EA40004239C4601370C361435E244052F92D195
:102EB400039B4546002B16D0734A0023A818734A77
:102EC400012794467249734CC25C1D2A00D98FE0D5
:102ED40066463D00D640B54300D189E0CA5401336B
:102EE400032BF1D145466B792A791B021343072B37
:102EF40000D89FE0684BE0226848E9180BF018F905
:102F04006C792B79240202221C43082C00D874E02B
:102F1400634B6448E9180BF00BF9E223DB00EA5C2D
:102F2400614B1A70614BEA5C614B1A70614BEB5C4C
:102F34005A1E9341604A1370604BEB5C0A2C00D814
:102F44008AE0013B5A4253415D4ADB0180331380DE
:102F54005C4BEA5C531E9A415B4BD2B21A705B4ADB
:102F6400AA5C1A725A4AAA5C511E8A41D2B21A74D5
:102F7400E3225849D200685CAA5C00021043564A16
:102F8400A95C564A0904AA5C084312060243544940
:102F94005A60544A685CAA5C00021043524AA95C15
:102FA400524A0904AA5C084312060243DA60E42286
:102FB4004F49D200685CAA5C000210434D4AA95CE8
:102FC4004D4A0904AA5C0843120602435A610123CC
:102FD4004A4A13704A4A137005B0F0BCBB46B24665
:102FE400A946A046F0BD002031E78121C9052BE7A1
:102FF400E25C73E78121C905A0E5002129480BF0B3
:1030040091F80E22284B1A70294B013A1A700022AB
:10301400294B1A702A4B80321A8000222A4B3949D4
:103024001A7059601A72384ADA6001221A74374ADF
:103034005A61CCE70024194E31002000013405F018
:1030440035FA2036072CF7D15AE700230020994699
:10305400E3E40020002423E5002B07D180235B0058
:10306400174A13800A2C00D172E7D6E79BB2F7E720
:1030740030CE0120E8C801200000F0C20000A042C8
:103084000000A0410000204124060000001080231D
:10309400AC570120244201202C060000DCBE022093
:1030A4000C07000018CF01207857012011070000F9
:1030B4007C57012012070000CCE701201307000011
:1030C4007A570120140700008057012015070000DB
:1030D40016070000190700001A0700001B0700006C
:1030E4001D0700001C0700001E0700001F0700004A
:1030F400210700002207000023070000CFE701207A
:10310400CEE7012000004842000070410000C0C228
:103114001349F8B5134B0F000E000B600223012571
:103124005937114C4B600C36FF37033B3278534010
:10313400082258082B405B422340013A4340002AAE
:10314400F7D10136B742F1D1FA20DB435932FF32CD
:1031540040038B60FFF732FA431E98414042F8BDAA
:10316400A4CA0120325053442083B8ED164A030008
:1031740080180003154A0168F0B5914221D1C28834
:103184009A421ED1E623DB000600C718012301255D
:103194000F4C0C365B4232785340082259082B40BE
:1031A4005B422340013A4B40002AF7D10136B74233
:1031B400F1D1DB438268D31A5A4253415B4218402F
:1031C400F0BD0020FCE7C046F50101003350534434
:1031D4002083B8ED70B5344B9B88022B42D0012B71
:1031E40004D000220020314B1A7070BD0124304DF0
:1031F4003048314E023B2A78534008225908234074
:103204005B420340013A4B40002AF7D10135B542F5
:10321400F1D1DB43244DAA689A42E2D1AC22274E75
:103224005200002130000AF07DFF2B7B3000337305
:103234006B7B23497373AB7B1830B373EB7BF373F2
:103244002B8A3382AB7C5A1E9341A022B3741D4B4C
:10325400520073610AF06CFF144B1C70FFF758FFA7
:103264000120C2E70124124D1248174E033B2A786D
:1032740053400822590823405B420340013A4B4023
:10328400002AF7D10135B542F1D1DB4306498A68FA
:103294009A42A6D1AC22094852000AF049FF034BD6
:1032A40001201C70A1E7C04600401F10BFE70120A9
:1032B4000C401F102083B8ED54411F10A4CA0120F4
:1032C40014401F100000A0C158411F1070B5104CCD
:1032D4002378002B00D070BD0E4A0F4B12689A421F
:1032E40003D1FFF777FF0028F5D1AC220B4D002165
:1032F400520028000AF016FF28000126084B1F225E
:1033040008491830EE736B610FF0DEFB2670E2E7BC
:10331400BFE7012000401F1032505344A4CA0120CB
:103324000000A0C110420120F8B54546DE465746CC
:103334004E46E0B58046FFF7C9FFE622B64C0021B1
:10334400D20020000AF0EEFEB44B200023600C23D0
:10335400A822A3804346B249D2000C30E3800AF08D
:10336400E7FEB04B00271A689B46AF4BE250AF4BC9
:103374001A78AA23DB00E254AD4BAE4AE31823CA01
:1033840023C323CA23C312681A60AE23AA4ADB00EC
:10339400E31823CA23C3A94BA94A1978A15459781D
:1033A400A84AA1549A78A84BE254A84B1A78B0239F
:1033B400DB00E254A64B1A68A64BE250A64B1A68EF
:1033C400B123DB00E250A54BA54A1978A1549978A2
:1033D400A44AA1545978A44AA15459680232A1506C
:1033E400A2499A680E00A24BE2500433E5183378E0
:1033F4002B7073780C366B707B00DB199B00CB1839
:103404001A790137914648465A7912021043814687
:103414004A469879DB79000410431B0603436B602A
:103424000835052FE3D10F00002292483C373B7842
:1034340003707B780C37437053009B189B00CB18A8
:103444003C335E791D79360235439E79DB79360447
:1034540035431B062B43013243600830052AE6D16D
:103464000E000025844A783678208246337813701B
:10347400737814365370AB005B199B00CB189A44D5
:1034840050460079803381465046477948463F028A
:10349400384381465046877948463F04384381463D
:1034A40050464F46C07901350006384350601879BC
:1034B40081464F46587900020743B94648469F79EA
:1034C400DB793F0407431B063B4393600C32052D15
:1034D400CAD16A4B03226A49E0180AF029FE694BF3
:1034E400E0226949E0180AF023FE684B0222684989
:1034F400E0180AF01DFE674B27001A78E223DB0070
:10350400E254654B01261A78644B6548E254654BD6
:103514000C371A78644BE254644B1B88013BFF3B25
:103524005A425341624AA354624B634A1978A154E4
:10353400197A624AA154197C614AA1545968023229
:10354400A150D9685F4AA1505A69E423DB00E250D4
:103554005B461A685C4BE2505B465A68E523DB0025
:10356400E2505A4B1A685A4BE2500433E5180123CF
:103574005B423A7853400822590833405B42034087
:10358400013A4B40002AF7D10137BD42F1D1DB4368
:10359400A360504B00211B6818009B0F8200121877
:1035A4004B41002192185B414B4880185941002936
:1035B40029D1FA23DB02984225D2802080000126FB
:1035C400464B1860464B1E70BFF35F8F4046E622A1
:1035D400F630FF3021000003D200FEF7EFFF002891
:1035E40017D1424696403F4B1A8A164342461E82E2
:1035F4009A73FFF78DFD00280BD1F0BCBB46B24691
:10360400A946A046F8BDFA220023920009F02EF93B
:10361400D5E70420F1E7C046E0DE012033505344EF
:1036240074F2012074CC01204C050000B8E701209D
:1036340054050000E8C8012004C9012010C9012074
:103644007C0500007D0500007E050000D1E7012017
:103654009C57012084050000985701205C570120E5
:103664008C0500008D0500008E05000030CE012081
:1036740094050000A0E40120C8E401202406000011
:10368400AC5701202C060000DCBE02200C07000011
:1036940018CF0120785701207C5701201107000022
:1036A4002083B8EDCCE70120120700007A570120EF
:1036B40013070000805701201407000015070000BD
:1036C400160700001C07000024070000A057012073
:1036D4002C07000034570120E703000054D70120D1
:1036E400DFE70120A4CA0120F8B5CE46474604000E
:1036F40080B5FFF7EBFD334B99461B8AE340DB07AC
:1037040057D5314BE5182D03304B2A689A4253D1D3
:10371400EB88A34250D1E623DB0098462E00012318
:1037240001272B480C36A8445B42327853400822C8
:1037340059083B405B420340013A4B40002AF7D111
:103744000136B045F1D1DB43AA689A4234D14B46E5
:10375400D97B28004B1E9941C9B2FFF711F9280003
:10376400FEF7ACFF1B4B18680AF0EBF8051CFEF7DC
:10377400F7FC281CFEF75CFCA0220021120216486C
:103784000AF0D0FC05F0D4FF144B1A78904207D00D
:103794001870013843425841C0B202F0D9F840BF12
:1037A4004B469C73FFF7B4FC0020C0BCB946B0463E
:1037B400F8BDFEF7FFFFD5E70022094B03201A707E
:1037C400F3E7C046A4CA0120F50101003350534475
:1037D4002083B8ED34570120B4F70120BCE7012061
:1037E400DFE70120030010B50120092B02D81800DF
:1037F400FFF79AFD10BDC046030010B50120092B48
:1038040002D81800FFF770FF10BDC046F8B5CE46C9
:103814004746040080B50120092C03D9C0BCB94631
:10382400B046F8BDFFF752FDBFF35F8F01200AF0E9
:10383400BDFF0025002803D0EFF30583002B4ED0F5
:10384400EFF3108672B620008021F630FF300003BB
:103854004901FEF7ABFE86F31088002D66D1354D85
:1038640035482968890006F0D7F82A68334B344D67
:103874001A60296800230A00890F900080185941B2
:103884000023001849412F4A80185941002920D1AA
:10389400FA23DB0298421CD28020800001273A00E0
:1038A400A240294B294E18609946294B60011F708C
:1038B4009846338A1830934300212022801933829A
:1038C4000AF030FCFFF724FCB37BA3420BD00020AA
:1038D400A4E7FA220023920008F0C8FFDEE70AF00A
:1038E40033FF0125ACE7F0234A465B0013604346EF
:1038F4001F70BFF35F8FFEF75DFF28680AF021F8A1
:10390400041CFEF72DFC201CFEF792FB05F010FFB3
:10391400104B1A788242DAD0187001384342584169
:10392400C0B202F015F840BF002077E70AF016FF96
:1039340095E7C04614CF012094AE02206CCC012040
:1039440034570120E703000054D70120A4CA012002
:10395400DFE70120BCE7012070B504000D00012061
:10396400092C0BD86401FFF7B1FC2100044C183179
:103974002022280009190AF0DBFB002070BDC04694
:10398400A4CA012070B504000D000120092C14D82C
:10399400FFF79CFC640109481834241820220021F4
:1039A40020000AF0BFFB1F22290020000FF08CF832
:1039B400FFF7AEFB431E9841800070BDA4CA0120EE
:1039C400F0B5C646804600B516001D000F00FFF78F
:1039D4007DFC4246084C238A1380237B069A3B7065
:1039E400637B3370A37B2B70E37B1370A37C079AF8
:1039F400137080BCB846F0BDA4CA012070B50400A1
:103A04000D000120012C01D8092900D970BDFFF750
:103A14005DFC044B1C735D73FFF77AFB431E9841F6
:103A24008000F3E7A4CA012010B50400631E9C4182
:103A3400FFF74CFC024BDC73FFF76AFB10BDC0467A
:103A4400A4CA01200122002382425B4110B5040074
:103A54005B421C40FFF73AFC024B9C74FFF758FB97
:103A640010BDC046A4CA012010B5FFF72FFC054BBA
:103A74001A68054B5A61FFF74BFB431E98418000BF
:103A840010BDC046A0570120A4CA0120F8B5124DAC
:103A94002B78002B02D0114B5869F8BD104A114BFA
:103AA40012689A4203D1FFF795FB0028F3D1AC22A8
:103AB4000A4E0021520030000AF034FB3000012786
:103AC400094C1F2209491830F77374610EF0FCFF8A
:103AD4002F70201CE1E7C046BFE70120A4CA0120E3
:103AE40000401F10325053440000A0C11042012076
:103AF40070B5124C2378002B02D0114B987B70BD0B
:103B0400104A114B12689A4203D1FFF763FB002855
:103B1400F3D1AC220A4D0021520028000AF002FB26
:103B240028000126094B1F2209491830EE736B61E6
:103B34000EF0CAFF00202670E1E7C046BFE701206F
:103B4400A4CA012000401F10325053440000A0C1F9
:103B540010420120584AF8B51268584B9A4228D0AE
:103B64000022574B1A70574A574B12689A4218D181
:103B740001230124554D5648564E5B422A78534042
:103B84000822590823405B420340013A4B40002A73
:103B9400F7D10135B542F1D1DB434A4CA2689A42D0
:103BA40033D0FFF793FBFFF7B3FAFEF703FE0020D1
:103BB400F8BDFFF70FFB0028D5D0474C237B012B22
:103BC4001ED0657B092D02D9657B092D1AD82A00E0
:103BD400238AD340DB070FD52800FFF7C7FA061E58
:103BE4000AD0E17B4B1E9941C9B2FEF7C9FE3000F1
:103BF400FEF764FDA573DAE7FEF7DCFDA573D6E7EF
:103C0400A57BDFE700220025E2E7E622334D002111
:103C1400D20028002E000AF085FAC422304B0C365C
:103C24002B60A38830002949D200AB800AF080FAC7
:103C3400E623DB00EF180123012425485B42327898
:103C440053400822590823405B420340013A4B4049
:103C5400002AF7D10136B742F1D1E622DB4329002D
:103C64002048D200AB60FEF7A9FC002899D1AC2211
:103C7400194D0021520028000AF054FA28001A4B6A
:103C84001F221A4918306B61EC732C820EF01CFF52
:103C940001220B4B1A70FFF73BFA002800D080E793
:103CA400FFF764FA041E00D17FE70021FEF768FEE7
:103CB4002000FEF703FD7AE700401F103250534402
:103CC400BFE7012000F01F10315053440CF01F10C7
:103CD4002083B8ED2CF61F10A4CA0120B0D7012010
:103CE4003350534400501F000000A0C1184201206B
:103CF40010B5FFF7EBFA064B0922987B00238242AA
:103D04005B415B421840FFF70FFB431E984110BD17
:103D1400A4CA012010B5FFF7D9FA0B4B0922987BEE
:103D2400002382425B415B421840FFF7DDFC002820
:103D340007D00338431E984101234042984303307F
:103D440010BD0020FCE7C046A4CA012010B5FEF750
:103D540031FD10BDF0B54646D6464F46C0B50E00FF
:103D6400FE2104008905101C151C09F0C3FD002860
:103D740000D0694D317A022922D84B00674A5B187A
:103D84009B009958D3185A689B688846181C0021D0
:103D940091469A4609F0B4FD002818D0002000216D
:103DA4002060404609F0ACFD002828D00020002106
:103DB4006060484609F0A4FD002837D0002045E0A3
:103DC400FE239B059946564B9A46564B9846002728
:103DD400281C391C09F094FD00286AD1291C50467E
:103DE40009F051FD011C504809F039FD09F04CFE61
:103DF40000212060404609F083FD0028D6D100212F
:103E0400281C09F07DFD00285AD14146281C09F0E0
:103E14003AFD011C444809F022FD09F035FE6060BA
:103E24000021484609F06CFD0028C7D10021281C58
:103E340009F066FD0028C1D14946281C09F023FD7C
:103E4400011C394809F00BFD09F01EFE374B75695A
:103E5400E360374BA06037496361281C09F04AFDD1
:103E6400002830D0334DE56175680021281C09F025
:103E740041FD002836D13049281C09F051FD0028A5
:103E84003CD02E48F56820610021281C09F032FD41
:103E9400002831D12A49281C09F042FD002800D00D
:103EA400274D00232562A361E0BCBA46B146A8466B
:103EB400F0BD40462760391C09F022FD002829D1B5
:103EC40000206060C2E70021281C09F029FD0028B9
:103ED400C9D00025E56175680021281C09F00AFD98
:103EE4000028C8D0FE20F568800520610021281C28
:103EF40009F000FD0028CDD00025D2E70E49281C8A
:103F040009F0ADFC0F4909F0BEFCFE21890509F05A
:103F1400A3FCB7E7381C82E70080BB472842012096
:103F2400CDCC4C3ECDCC4C3D8E5D13C00000A0C129
:103F34000000C0400000C0C20000C8420000A04110
:103F440000000C420000984110B50021044A04000E
:103F54000AF0E8F880235B05E360236110BDC046E6
:103F6400181E0000F0B5DE4657464E464546E0B5FD
:103F74008BB00791FE2101908905101C069209F06F
:103F8400B9FC002801D0124B0693019C1149201C56
:103F940009F0B0FC002800D0AEE20F49201C09F063
:103FA400BFFC002801D00C4B01930C4B1A78012361
:103FB4009B1ADBB21A000993B7231B015343084A27
:103FC4009B189A4608933C235B425446029382E131
:103FD4000080BB47000020420000C842B4E7012033
:103FE400B4970220F449281C09F04DFC011C8046BA
:103FF400F24809F0BDFEF24909F02BFCF14909F041
:1040040042FCF14909F028FCF049051C09F072FC56
:10401400002800D0ED4D281C09F0A0FEEC4909F061
:1040240032FCEC4909F015FCEB4909F015FCE249B6
:10403400051C301C09F027FC011C071CDF4809F093
:1040440097FEDF4909F005FCDE4909F01CFCDE4956
:1040540009F002FCDD49814609F04CFC002801D03E
:10406400DA4B9946484609F079FE01998146301C9D
:1040740009F0EFFBD649061C484609F004FCD54973
:1040840009F0E7FBD44909F0E7FB291C09F0E1FB3F
:10409400311C09F0DEFBD149051C079809F0DFFB50
:1040A400011C8146281C09F0EEFB4146051CC3484F
:1040B40009F05EFEC24909F0CCFBC24909F0E3FBFA
:1040C400C74909F0C9FBC149804609F013FC00281F
:1040D40001D0BE4B9846404609F040FEC14909F064
:1040E400D2FBC14909F0B5FBBB4909F0B5FB391C4A
:1040F4008046B24809F03CFEB14909F0AAFBB14937
:1041040009F0C1FBB64909F0A7FBB049071C09F047
:10411400F1FB002800D0AD4F381C09F01FFEB14957
:1041240009F0B1FBB04909F094FBAB4909F094FBE9
:10413400414609F08EFB311C09F08BFB011C4846FB
:1041440009F0A1FB470003906800A84940087F08D4
:1041540009F0D0FB002800D0DCE0A5492075281C1C
:1041640009F07DFB011C954809F002FE0699051C27
:10417400A04809F074FB061C09F074FC8346301C4B
:1041840009F05EFC8146281C09F04AFCFE218246A7
:104194008905281C09F060FBFE21061C8905281CE2
:1041A40009F057FB011C0490484609F06CFB80465B
:1041B400011C301C09F04DFB8F490590584609F04D
:1041C4004EFB51468346504609F046FB011C5846B7
:1041D40009F059FB311C8246484609F054FB41461C
:1041E4008146301C09F038FB011C8346504609F017
:1041F40033FB5146061C059809F02EFB291C09F0D7
:1042040042FB311C09F02BFB9B21C90509F03BFB48
:1042140009F0BEFB291C2060281C09F01DFB49463F
:104224008046049809F015FB011C404609F02BFB5D
:10423400311C09F014FB9B21C90509F024FB09F08A
:10424400A7FB51466060059809F003FB291C09F09F
:104254001AFB311C09F003FB9B21C90509F013FB70
:1042640009F096FB4946A060049809F0F5FAC021CC
:10427400090609F008FB311C09F0F1FA9B21C90574
:1042840009F001FB09F084FB5146E060584609F04F
:10429400E0FA311C09F0E3FA9B21C90509F0F3FAAD
:1042A40009F076FB51492061381C09F023FB2C23CB
:1042B400002840D00122E25480235B05A36100233F
:1042C400E36123626362A362029B3034013302938D
:1042D400012B00D103E1029809F038FB019909F0A0
:1042E400BBFA4649061C09F005FB002800D0434EE2
:1042F400019D311C281C09F0FDFA002800D02E1C59
:10430400019D311C281C09F0FBFA002800D169E644
:10431400002703970123237580235B052360002373
:1043240032496360A360E3602361381C09F0E2FA58
:104334002C230028BED1E0542D49039809F08FFAAC
:10434400011C1E4809F014FD0699051C2C4809F0AF
:1043540086FA061C09F086FB8346301C09F070FBC4
:104364008146281C09F05CFBFE2182468905281C35
:1043740009F072FAFE21061C8905281C09F069FA65
:10438400071C011C484609F07EFA8046011C301CBB
:1043940009F062FA18490390584609F060FA514648
:1043A4008346504609F058FA011C584609F06BFA46
:1043B400311C8246484625E0CDCCCC3C000020414F
:1043C4003333933F1479923B3EEAA441FFE6DB2E5C
:1043D400682FB941CDCCA0420000BC420000C842C5
:1043E40034AE5A3CEFE3044266668E410AD7233C5E
:1043F4000000204263149D44F4FDB43F0000A0413A
:104404001D43134709F03FFA41468146301C09F029
:1044140020FA011C8346504609F01EFA5146061C38
:10442400039809F019FA291C09F02DFA311C09F036
:1044340016FA9B21C90509F026FA09F0A9FAC02148
:10444400A0610906281C09F01EFA49468046381C5A
:1044540009F002FA011C404609F015FA311C09F072
:10446400FEF99B21C90509F00EFA09F091FA5146AB
:10447400E061039809F0EDF9291C09F004FA311CF4
:1044840009F0EDF99B21C90509F0FDF909F080FA5D
:1044940049462062381C09F0DCF9011C09F0DCF9FA
:1044A400311C09F0DCF99B21C90509F0ECF909F08C
:1044B4006FFA51466062584609F0CBF9311C09F095
:1044C400CEF99B21C90509F0DEF909F061FA029BD6
:1044D400A062013302933034012B00D0FBE6084B79
:1044E400099A1A70074B089A1A600BB0F0BCBB46C5
:1044F400B246A946A046F0BD034B019355E5C0461C
:10450400B4E70120ACCD012000002042416E10B57B
:104514000400002904D0806C0BF0F4F900236366D6
:104524000023A36602E0A06C0BF0ECF90021A06C60
:104534000BF0FEF9011EF6D1207710BDF0B5DE4672
:1045440057464E464546E0B585B0EFF3108A72B63D
:1045540000239846A0230027734EDB05BB460025A5
:10456400994637003B78012B5CD0704B5C59002C8A
:104574003AD0A36C002B37D0237C002B00D0A4E0CE
:10458400A3796179002B00D09AE001238B40684A1B
:1045940013604846674A89018350674B80229C46D2
:1045A400520461440B681E0016401342FAD1A168FC
:1045B400002903D0A06C0BF0F3FAA6602000FFF7EB
:1045C400A5FFA3796279002B00D188E00123494635
:1045D40093405A4A8B505A4A13605B466A469B0082
:1045E4009C5001239C46E34404350137082DB9D17E
:1045F4005F46002F00D07FE04346002B00D076E0DA
:10460400504C51482168890005F006FA22684F4B46
:104614001A608AF3108805B0F0BCBB46B246A946BE
:10462400A046F0BD4A4B5C59002CDDD0A06C00289C
:10463400DAD0237D002B71D1A3796179002B60D16D
:1046440001238B403A4A13604E463A4A8901B350DB
:10465400394B80229C46520461440B681E0016406C
:104664001342FAD1E168002903D00BF099FAA06C47
:10467400E660616E002904D00BF044F90023A06CBD
:1046840063660023A36603E0A06C0BF03BF9A06C07
:1046940000210BF04DF9011EF6D1A3796279002BAC
:1046A40034D0012349469340244A8B50244A136052
:1046B40043469A0002ABD45001239C46E04493E75E
:1046C40001238B40234A136063E7002120000AF092
:1046D400F9FBA3796179002B00D156E7F0E70123B8
:1046E400494693401C4A8B501C4A136075E7414667
:1046F40002A80BF0BDFE83E7594668460AF01AFC8F
:104704007AE701238B40134A13609DE7012349464E
:104714009340114A8B50114A1360C9E720000021CD
:104724000BF070FDA06C87E718CF0120B0BE02200B
:1047340004340050440400000C0000501C04000029
:104744001424005014CF012094AE02206CCC01201C
:104754002CDE0220143400500C0400000424005009
:10476400F0B54E464546DE465746E0B58DB00600E8
:104774000D000490002817D008AC02222000BC4988
:1047840009F0D6FC238806AA9381F30719D406AB53
:104794001B7B049A92070ED422789A4217D106AB57
:1047A4005A7B63789A4212D10DB0F0BCBB46B24634
:1047B400A946A046F0BD6A78012AEDD806A94A7335
:1047C400EAE72B78012BE2D806AA1373E1E7012369
:1047D400A84A1370BFF35F8F052005F051FB002139
:1047E4000690052005F03AFB06AB1B7B012B00D19C
:1047F4001AE206AB5B7B013B5A4253415B00013B2F
:10480400079303F09DFE9C4B1B78022B00D1CCE157
:10481400F0229A4B52001A60994BE03AFF3A1A7010
:10482400BFF35F8F00210C2005F018FB00210B2043
:1048340005F014FB934B80259A46A023DB05A04684
:1048440000269B4603946D0443461B78012B00D13C
:10485400D8E053469F59002F2FD0BB6C002B2CD08F
:104864003B7C002B00D07EE1BB797A79002B00D011
:104874005CE10123934084490B60594683489201CB
:104884000B50834B9C4662441368190029402B4209
:10489400FAD18946B968002900D1DEE0B86C0BF082
:1048A4007FF94B46BB60BB797A79002B00D0D9E005
:1048B400012359469340774A8B5001239C46043682
:1048C400E044082EC0D1744F53468025D346B946E0
:1048D400BA4609AE05936D04039B32781B789A425D
:1048E40006D0012B00D0EBE0534618680BF08EFE87
:1048F400039B06AA0133039304239C46E244E34446
:1049040094460A3301366344B342E5D100250C22B0
:10491400624B4F469846624B624E9A46635D994697
:1049240006AB9B185B5D012B38D04B46012B00D1A5
:1049340052E1059B04360433059301239C46043756
:10494400E044012D21D10222494809A909F0F0FBD4
:10495400474B1B78012B00D10AE1454B5B78012BB7
:1049640000D105E100200CF0A7F8FFF7E7FDBFF345
:104974005F8F00233F4A1370069B002B00D026E173
:104984000499494809F056FD0EE701250C22635DA0
:10499400994606AB9B185B5D012BC6D1079B5B1B3D
:1049A4005A425341DBB203934B46012B00D1C7E07B
:1049B40043461B780AAA13703C4B51461B7838684F
:1049C40053702B000833937000239B46137153716B
:1049D400039BD57093710BF0FFF95B46316838681F
:1049E4000022009310330BF0ABFB4B46012BA0D1FC
:1049F400079BAB4200D11AE12D4A29002D4809F04A
:104A040019FD96E7244B9F59002F00D155E7BB6C45
:104A1400002B00D151E73B7D002B00D0FFE0BB7998
:104A24007A79002B00D1F0E00123934022490B60F6
:104A34005946164892010B50154B9C466244136824
:104A4400190029402B42FAD18946F968002904D07B
:104A5400B86C0BF0A5F84B46FB60BB797A79002B58
:104A640000D125E7012359469340144A8B5024E78B
:104A740018CF0120D6E70120BCE7012054D701203C
:104A8400DFE70120B0BE02200434005044040000DB
:104A94000C0000500C0400002CDE0220AC57012056
:104AA4002C570120BCBF0220AC42012078570120C2
:104AB4004C42012064420120143400501C040000C4
:104AC4005B461F68002138000AF0FCF9BB797A794B
:104AD400002B30D10123934056490B60A021564846
:104AE400C9050B50554B92019C466244136819004A
:104AF40029402B42FAD18846B968002904D0B86C01
:104B04000BF04EF84346BB603800FFF7FFFCBB795F
:104B14007A79002B54D00123A0219340484AC90537
:104B24008B50397938680AF0DBFCE1E601239340C5
:104B340044490B60A1E60123934042490B60CDE751
:104B44003B689B469B6C002B05D05B46039A5B7AC3
:104B5400934200D1EDE65B461B7D002B5AD15846AB
:104B64000BF054FD24E7002138000AF0ABF97BE692
:104B7400354B1B78002B00D1F7E6344C344B2168BD
:104B8400344D994209D980232A885B009A4204D182
:104B9400803B31482B8009F04DFC01200BF08CFF49
:104BA400206829880BF0AEFFDFE62C4B02E05A7830
:104BB400002A02D11A78002AF9D1BFF35F8F27E6C1
:104BC4000123A0219340264AC9058B50A9E701215E
:104BD400052005F043F9D3E6059B1B68197918688D
:104BE40099460AF065FC4346484619780AF0EEF8FF
:104BF4004B4648469A6C31684C300AF0CBFF6C2225
:104C04000021386809F08EFA93E60123934009499C
:104C14000B600DE7002158460BF0F4FA9FE70021E2
:104C240038000BF0EFFAFAE600230793E9E50D4AA2
:104C3400E3E6C04604340050440400000C00005075
:104C44001C04000014340050CCE701203457012028
:104C5400FF7601007A5701207C4201203CC90120E3
:104C64000C0400005842012070B503F069FC244B89
:104C7400782218680021002308F0CEFD0023214A81
:104C840080185941002916D11F4B984213D8F0209F
:104C94001E4B40001B78022B16D001221C4B1860BF
:104CA4001C4B1A70BFF35F8F1B4B1B78002B16D164
:104CB40003F046FC70BDFA220023920007F0D6FDF3
:104CC400124B1B78022BE8D1144B02E05A78002ACD
:104CD40002D11A78002AF9D1BFF35F8FDDE705F01E
:104CE4009FFE0F4E04000D0003E0B042E0D803F035
:104CF40027FC05F095FE001BA9410029F5D0D7E754
:104D040034570120E7030000FF520700BCE70120ED
:104D140054D70120DFE70120E7E701203CC9012047
:104D24002F750000F0B5D6464F464646C0B519204B
:104D340082B004F09FFFD024802324069B04636286
:104D44000C2006F039FA0A2005F09EFE0122052106
:104D54005A4804F0F7FE172004F08CFF80231B044C
:104D640063626361564B1121186809F02DFD882296
:104D7400544B52011A6004F0EDFC534804F042FE17
:104D8400FA22524B920018689946810C0023800342
:104D940007F06CFD4E4B18601A684E4B1A60FEF714
:104DA400D9FEEFF3108472B64B48FDF7D9F94A489F
:104DB400FDF73EF984F31088484B002498461E0002
:104DC40000236A46464F9A463B5D0432454D1355CF
:104DD400012B5FD028683278C3799A420AD0002127
:104DE4000AF070F83178286809F0F0FF012128688A
:104DF4000AF068F804350136012C44D100233B70D5
:104E04007B705346002B4BD1374B334A1868374BD2
:104E14001968FFF7A7F8364B1B78002B08D0354BE1
:104E24001B68002B04D04B46988800B203F054FB57
:104E3400314C294A21003148FEF78CFF3048FFF7F6
:104E440083F80122237853402E4A137043469878FE
:104E540000F0B2FDC8232C4AD35C002B25D1B42129
:104E6400A033D35C525C134326D1284A002013702C
:104E740000F06EFD264809F01BFC02B0E0BCBA4607
:104E8400B146A846F0BD01246A463B5D0432135581
:104E9400012B9FD1A34052461A43D3B29A46A9E7A5
:104EA400504601A9FFF75CFCAEE70122174B012035
:104EB4001A7000F04DFDDDE70223D6E700808D5B1C
:104EC400F45701200000034094AE0220345701201F
:104ED40014CF01206CCC01200080BB47AC570120CB
:104EE40018CF0120B0BE02209C5701209857012002
:104EF400D1E70120ACCD012080570120B8BE0220AB
:104F0400C4BF02207D57012030CE0120BCE7012020
:104F1400715A0020F0B5DE46574645464E46E0B588
:104F240019208FB004F0A6FED02380221B06920421
:104F34005A6204215A61A248022204F003FEFFF7D8
:104F4400F1FEFA200121400106F056F99D4B9E4DD9
:104F540098469E4B9E4F9A469E4B9B4606F042F9BE
:104F640003F0EEFA9C4B1B78002B6BD19B4B1B7808
:104F7400002B00D087E09A4B1B78002B00D0A1E0D7
:104F8400984B1B78002B00D0B0E0974B1B78002B7C
:104F940000D0BFE0954B1B78DCB2002B00D0CBE0F7
:104FA400934B1B78002B00D062E1924B1B78002BB3
:104FB40000D0B6E1904B1B78002B00D0D6E18F4B8C
:104FC4001B78002B00D0E8E18D4B1B78002B00D020
:104FD400FFE18C4B1B78002B00D01CE28A4B1B7822
:104FE400002B00D05AE2894B1B78002B00D06DE2D5
:104FF400874B1B88002B00D086E2864B1B78002B46
:1050040000D018E3844B1B78002B00D076E3834B4D
:105014001B78002B00D081E3FA223B689200013315
:105024003B6093429AD3002380223B60D0239204B6
:105034001B06DA6106F0D6F803F082FA664B1B7899
:10504400002B93D0EFF3108672B6754B202275496E
:1050540006A81C7809F06CF800235F4A137086F3E5
:105064001088FFF701FE200006A9FEF78BFC021E44
:1050740000D17BE721006C4809F0DCF9574B1B7821
:10508400002B00D177E7EFF3108372B6674A5349D8
:105094001478674A167800220A7083F31088FFF7A1
:1050A400E3FD31002000FEF7A9FC031E00D162E7F6
:1050B400320021005F4809F0BDF9494B1B78002BF1
:1050C40000D15DE7EFF3108372B65B4A444914786C
:1050D40000220A7083F31088FFF7C6FD2000FEF754
:1050E400A3FC404B1B78002B00D14EE7EFF3108359
:1050F40072B6524A3B49147800220A7083F310882E
:10510400FFF7B2FD2000FEF79DFC374B1B78002B08
:1051140000D13FE7EFF3108372B6002232490A70E0
:1051240083F31088FFF7A0FDFEF79EFC2F4B1B783E
:10513400DCB2002B00D133E71022414906A808F065
:10514400F7FF0023294A06A9137002AB1E7C5B7C7F
:1051540072009C46029390193A4B800060449C462E
:10516400000103926044102208F0E2FF331F012B78
:1051740000D84FE3EFF3108972B64346186808F07D
:10518400E0FB039B021C9C46029B66449C462E4B00
:10519400B10061449C464901614406A8FCF794FCB3
:1051A40002AB197C294B5A5C002A58D026484B0084
:1051B40084465B18DB011C33002063444CE0C0468A
:1051C40000808D5B345701203CC9012014CF01209D
:1051D400A8CD012054D70120C7E70120CAE7012048
:1051E400C3E70120C5E70120C2E70120C0E7012091
:1051F400E1E70120D2E70120BEE70120CFE701204B
:10520400E6E70120DEE70120E2E70120E0E70120F4
:10521400B0E70120C1E70120D5E70120B7E701206D
:10522400C8E70120E0DD0220D0420120C9E70120C7
:10523400CBE70120F8420120C4E70120C6E70120A2
:105244001CDE022074F20120F4E70120145701202F
:1052540001302033904202DA1C78002CF8D1B64B8E
:105264005C5489F31088B54B1B78002B00D19CE665
:10527400B34BB24A1C680023137003F061F9B14BBD
:105284009C4200D1ACE2B04B9C4200D1A8E2AF4AB0
:10529400944200D1A4E2C0201C004003AC4BAD4AB0
:1052A4001C600023137000220023AB490A604B608A
:1052B400534618601B68A94AA948136053461968E5
:1052C400890004F0A9FB5346A44A1B68200013601C
:1052D40008F037FBFCF744FF0123A24A20001370B7
:1052E400A14A1370A14A137000F038FB20000BF0A0
:1052F400B7FA9F4B1B78002B00D156E6924B9C4289
:1053040000D0ABE29B4B198880235B00994200D10B
:105314009DE220000BF0F6FB924B1B78002B00D192
:1053240048E600238F4A1370934B1C68934B1E6806
:105334004346186808F005FB311C021C201CFEF7CC
:1053440011FE8F4B1B78002B00D133E68D4B1B686D
:105354000293002B00D12DE64346988800B203F057
:10536400BBF8814B1B78002B00D128E600237E4A32
:1053740013704346186808F0E4FA8349021C834812
:10538400FCF764F80122804B1B785340804A137069
:10539400764B1B78002B00D116E60024734B1C704F
:1053A4004346186808F0CDFA7A49021C7A48FEF799
:1053B400D1FC7A4B1B78002B00D042E20122754BC2
:1053C4001B785340764A1370764B1B78002B00D120
:1053D400FFE50023734A1370BFF35F8F03F0B0F847
:1053E40004F092F9704B1B78022B00D1F2E1F02308
:1053F4005A465B0013606D4AE03BFF3B1370BFF3FA
:105404005F8FFFF79BF86A4808F0B8FF694B1B7879
:10541400002B00D1E2E50023664A1370BFF35F8FCF
:10542400654B1E785B78994603F08AF85E4B1B78CF
:10543400022B00D1E8E1F0235A465B0013605B4A7B
:10544400E03BFF3B1370BFF35F8F5C4B1878C0B237
:10545400FEF7D2F9464B1B78002B00D021E2564BC5
:105464001B78B34200D112E2534B5C784B46E41AEA
:10547400631E9C416400013402224F4906A808F0CF
:1054840057FE4A464C4B20001E705A7006A9FFF77F
:1054940067F94B4B1B78002B00D1A4E50023484A45
:1054A4001370BFF35F8FFFF7DFFBFEF721FC0400EF
:1054B400FFF744F8002C00D195E52100414808F09D
:1054C400B9FF414B1B78002B00D191E500233E4AE4
:1054D4001370BFF35F8FFFF7C7FB3C4B1878C0B264
:1054E400FEF780F90400FFF729F8002C00D17FE5CE
:1054F400364B220019783648C9B208F09BFF354B69
:105504001B88002B00D178E5EFF3108372B6314A83
:10551400304916880022B6B20A8083F31088264BDD
:1055240000241B780293244B5B780393FFF79CFBC6
:105534000123994653E0C046ECE70120E1E701204E
:10554400B457012080BB00000077010044AC000088
:105554002C570120E7E7012010B101206CCC012079
:1055640094AE0220D2E70120BEE70120CFE701205C
:10557400CCE701207A5701209C570120985701203D
:10558400D1E70120ACCD01205C57012000DE0220D0
:105594005857012080570120B8BE0220CEE70120D1
:1055A4007D570120E6E70120BCE70120DFE7012069
:1055B4002C430120DEE7012018CF0120DCE7012085
:1055C400E2E7012054430120E0E70120DDE7012068
:1055D40078430120B0E7012001340A2C0AD03300BB
:1055E4004A46E3401A42F7D0E0B20134FEF70EF91E
:1055F4000A2CF4D1C54B029A1B78934200D130E1B6
:10560400C24B5C78039BE41A631E9C416400013422
:105614000222BE4906A808F08BFDBC4B029A20006A
:105624001A70039A06A95A70FFF79AF8B84B1B78B8
:10563400002B00D1E6E40023B54A1370BFF35F8F5B
:10564400B24B1C785E7802F07BFFB24B1B78022BC6
:1056540000D1D0E0F0235A465B001360E03BFF3BEF
:1056640099464A46AC4B1A70BFF35F8FFEF76EFB48
:105674004346186808F065F9FCF772FD434618685C
:1056840008F05FF9FCF7D4FC4A46A44B00211A70D9
:10569400A34BA4481A70A022120208F043FD04F0A0
:1056A40047F89C4B1B78834208D09A4B18700138FA
:1056B40043425841C0B200F04BF940BF934B1B78B2
:1056C400A34200D1D8E0914B5B789B1B5A1E9341B7
:1056D4005B00994601239C46E14402228B4906A8BB
:1056E40008F026FD894B48461C705E7006A9FFF73A
:1056F40037F88D4B1B78002B00D188E48A4B8A4AFB
:1057040018780023C0B21370BFF35F8F8749FFF787
:1057140027F8874B1B78002B00D17DE40023844AB3
:10572400137002F00DFF7B4B1B78022B49D0F02342
:105734005A465B001360784AE03BFF3B1370BFF3AB
:105744005F8F02AA94460E33634401930E2363448D
:1057540000930B210D236144634406A805AAFEF7B8
:105764002FF902AB997B73484B1E9941C9B2FBF7E1
:105774006BF8002800D04FE44346186808F0E1F8BD
:10578400041CFCF7EDFC201CFCF752FC6A4B1B7854
:10579400002B00D095E003F0CBFF5E4B1B788342D7
:1057A40001D1FFF739FC5B4B187001384342584173
:1057B400C0B200F0CDF840BFFFF72EFC6B78002B91
:1057C40002D12B78002BF9D1BFF35F8FAFE76B7851
:1057D400002B02D12B78002BF9D1BFF35F8F06E6A3
:1057E400FA220023A10CA003920007F03FF855E52C
:1057F4006B78002B02D12B78002BF9D1BFF35F8F8C
:1058040028E76B78002B02D12B78002BF9D1BFF35A
:105814005F8F10E63F4B1B78022B00D0AAE42B7855
:10582400002B05D06B78002B02D12B78002BF9D1FB
:10583400BFF35F8F02AB1E7C5B7C02937300039308
:1058440098E43E4B3E481C70FEF77EFBB6E53D4AAD
:10585400803B21003C48138008F0ECFD394B19884B
:1058640057E52A4B039A5B780224934200D0CFE693
:10587400FEF764FEFFF7C1FB0222244B91465B78DE
:10588400B34200D029E7FEF759FEFFF7BBFB1F4BDD
:1058940002245B784B4500D0EEE5FEF74FFEFFF7A0
:1058A4009DFB4346294A1B68934221D9254A118806
:1058B40080225200914214D0434618680BF022F91A
:1058C400CDE54346214A1B6893421BD91D4A1188E2
:1058D4008022520091420ED0434618680BF012F910
:1058E40059E71849803A0A801748190008F0A2FDC0
:1058F400144B1988E0E71349803A0A8012481900CA
:1059040008F098FD0F4B1988E6E7C04618CF012030
:10591400C1E70120BCE70120DFE70120D2E7012035
:10592400BEE70120B4F70120D5E70120DCDD022029
:10593400B7E70120B0AE0220CCE70120CEE701207A
:10594400C4BF02207A5701207C420120FF76010067
:10595400014B187040BF7047D8E7012070B50400B0
:10596400052005F0D3FB07F0ECFF051C200207F02F
:10597400E8FF011C281C07F072FF051C08F03AF828
:1059840084B20023002C0ED0200007F0DAFF011CA3
:10599400281C07F05EFF8721C90507F074FF08F093
:1059A40029F8C3B21B0224041C43C823014AD4505F
:1059B40070BDC046000030508022F0B53C4E3D4DD5
:1059C4008BB030709201AA21280008F0ABFB3A4951
:1059D4003A4809F095FD0023099380235B0206935E
:1059E400F8235B020793C0230400354F10221B03E6
:1059F400386006A902A8089308F09AFBE30124037F
:105A04001C43802330785B03034305932D4B07210C
:105A14000394049304F0D2F8012332780021274838
:105A2400009309F077FE02AB3A680021234809F09D
:105A3400C9FE052005F06AFB07F083FF224907F041
:105A44000EFF061C07F0D6FF84B20023002C0ED0F4
:105A5400200007F076FF011C301C07F0FAFE8721B6
:105A6400C90507F010FF07F0C5FFC3B21B02C82227
:105A7400012124041C43114B01209C501A680A4341
:105A84001A6009F08BFCA021C9058C460F4BC20299
:105A940018600F4B0F4913400F4A1A4383016344A4
:105AA4001D605960012149429960DA600BB0F0BD74
:105AB4001B57012000800120A0430120000030502A
:105AC40030CF012000000E400080BB4B1C5701204A
